:100000000C94DF000C9407010C9407010C94070179
:100010000C9407010C9407010C9407010C94070140
:100020000C9407010C9407010C9407010C94070130
:100030000C9407010C9407010C9407010C94070120
:100040000C949F060C9407010C946D060C944706C3
:100050000C9407010C9407010C9407010C94070100
:100060000C94E9060C94070100407A10F35A00A0A2
:10007000724E18090010A5D4E80000E87648170071
:1000800000E40B54020000CA9A3B000000E1F505B1
:10009000000080969800000040420F000000A086FB
:1000A00001000000102700000000E803000000002D
:1000B0006400000000000A000000000001000000D1
:1000C00000002C76D888DC674F0823DFC1DFAE59EB
:1000D000E1B1B796E5E3E453C63AE651997696E87E
:1000E000E6C28426EB898C9B62ED407C6FFCEFBC02
:1000F0009C9F40F2BAA56FA5F490055A2AF75C932D
:100100006B6CF9676DC11BFCE0E40D47FEF520E662
:10011000B500D0ED902E0300943577050080841E45
:10012000080000204E0A000000C80C333333330FA0
:10013000986E12831141EF8D2114893BE65516CF3D
:10014000FEE6DB18D1844B381BF77C1D901DA4BB49
:10015000E424203284725E228100C9F124ECA1E5FE
:100160003D2700000000240027002A0000000000B6
:10017000250028002B000000000023002600290095
:10018000040404040404040402020202020203033D
:100190000303030301020408102040800102040845
:1001A00010200102040810200000000800020100D5
:1001B00000030407000000000000000008081124EC
:1001C0001FBECFEFD8E0DEBFCDBF11E0A0E0B1E0B1
:1001D000E2E5F7E202C005900D92AE36B107D9F71D
:1001E00023E0AEE6B1E001C01D92AE3BB207E1F7FD
:1001F00010E0CFEDD0E004C02197FE010E947B13F8
:10020000CE3DD107C9F70E9441080C94A7130C9466
:100210000000E0914502F0914602309729F01092DB
:100220004E0210924D0209940895CF93DF93AC01D2
:10023000E0914702F09148023097F1F0909150021E
:1002400080914F029817C0F090E0292F30E02617D8
:10025000370754F4D901A055BE4F240F351FE901CB
:1002600028812C939F5FF1CF1092500260934F0230
:10027000CB01DF91CF910994DF91CF910895AF9297
:10028000BF92CF92DF92EF92FF920F931F93CF9383
:10029000DF936C017B018B01040F151FEB015E01E5
:1002A000AE18BF08C017D10759F06991D601ED917A
:1002B000FC910190F081E02DC6010995892B79F719
:1002C000C501DF91CF911F910F91FF90EF90DF90CB
:1002D000CF90BF90AF900895FC01538D448D252F92
:1002E00030E0842F90E0821B930B541710F0CF96D0
:1002F000089501970895FC01918D828D981761F002
:10030000A28DAE0FBF2FB11D5D968C91928D9F5F18
:100310009F73928F90E008958FEF9FEF0895FC01F7
:10032000918D828D981731F0828DE80FF11D858DAA
:1003300090E008958FEF9FEF0895FC01918D228D3D
:10034000892F90E0805C9F4F821B91098F739927C2
:10035000089585E193E00E949D0121E0892B09F435
:1003600020E0822F089580E090E0892B29F00E9400
:10037000A90181110C9400000895FC01A48DA80F1F
:10038000B92FB11DA35ABF4F2C91848D90E00196D7
:100390008F739927848FA689B7892C93A089B189F7
:1003A0008C91837080648C93938D848D981306C098
:1003B0000288F389E02D80818F7D80830895EF92FC
:1003C000FF920F931F93CF93DF93EC0181E0888F0F
:1003D0009B8D8C8D98131AC0E889F989808185FFDF
:1003E00015C09FB7F894EE89FF896083E889F98981
:1003F00080818370806480839FBF81E090E0DF9183
:10040000CF911F910F91FF90EF900895F62E0B8DD5
:1004100010E00F5F1F4F0F731127E02E8C8D8E1190
:100420000CC00FB607FCFACFE889F989808185FFF7
:10043000F5CFCE010E94BD01F1CFEB8DEC0FFD2F6A
:10044000F11DE35AFF4FF0829FB7F8940B8FEA89B2
:10045000FB8980818062CFCFCF93DF93EC01888DC1
:100460008823B9F0AA89BB89E889F9898C9185FD2F
:1004700003C0808186FD0DC00FB607FCF7CF8C91BD
:1004800085FFF2CF808185FFEDCFCE010E94BD01B7
:10049000E9CFDF91CF910895833081F028F4813046
:1004A00099F08230A9F008958730A9F08830C9F01A
:1004B0008430B1F4809180008F7D03C080918000F2
:1004C0008F7780938000089584B58F7784BD0895D9
:1004D00084B58F7DFBCF8091B0008F778093B00083
:1004E00008958091B0008F7DF9CFCF93DF93282FAF
:1004F00030E0F901E855FE4F8491F901EC56FE4FCA
:10050000D491F901E058FE4FC491CC23A1F08111A0
:100510000E944C02EC2FF0E0EE0FFF1FEA58FE4F56
:10052000A591B491EC91ED2381E090E009F480E095
:10053000DF91CF91089580E090E0FACF1F93CF93A1
:10054000DF93282F30E0F901E855FE4F8491F9013F
:10055000EC56FE4FD491F901E058FE4FC491CC23E4
:10056000A9F0162F81110E944C02EC2FF0E0EE0F43
:10057000FF1FE459FE4FA591B4918FB7F894EC9109
:10058000111108C0D095DE23DC938FBFDF91CF918E
:100590001F910895DE2BF8CFCF93DF9390E0FC01FD
:1005A000EC56FE4F249180589E4FFC018491882385
:1005B000D1F090E0880F991FFC01EE59FE4FA591F4
:1005C000B491FC01E459FE4FC591D49161110EC064
:1005D0009FB7F8948C91E22FE0958E238C9328811D
:1005E000E223E8839FBFDF91CF9108958FB7F894FE
:1005F000EC91E22BEC938FBFF6CF3FB7F89480914C
:10060000410290914202A0914302B091440226B56A
:10061000A89B05C02F3F19F00196A11DB11D3FBF3A
:10062000BA2FA92F982F8827BC01CD01620F711D09
:10063000811D911D42E0660F771F881F991F4A9503
:10064000D1F70895CF92DF92EF92FF920E94FD02C0
:100650006B017C010E94FD026C197D098E099F09C6
:10066000683E734081059105A8F3FF90EF90DF90FD
:10067000CF9008952091F601260F3327331F2132A2
:100680003105ECF420911A02FC0190E080E0243066
:1006900069F082E00895A091F6012191AC014A52DF
:1006A0005E4FA40FB52FB11D2C930196861798F3BA
:1006B0008091F601680F6093F60180E0089581E073
:1006C000089510921A0281E080931C0210921B027E
:1006D00061E082E10E949E0261E083E10E949E024D
:1006E000E9EBF0E080818E7F808380818D7F808345
:1006F00088E48093B80085E48093BC000895089551
:10070000E091500280914F02E81730F4F0E0E0559C
:10071000FE4F808190E008958FEF9FEF08959091B4
:10072000500280914F022FEF3FEF981748F4E92FC6
:10073000F0E0E055FE4F208130E09F5F9093500243
:10074000C901089580914F0290915002891B990B25
:100750000895CF93DF93CB01EA01642F0E943A03FF
:10076000CE01DF91CF910895CF93DF931F92CDB744
:10077000DEB7698361E0CE0101960E943A0381E011
:1007800090E00F90DF91CF91089590E080E0089580
:100790002091740230917502822B932B90937502F5
:1007A00080937402089581E080936A0281E090E072
:1007B0000C94C80310928202109283021092840259
:1007C00010928502109281021092670210926602C6
:1007D00010927F02109265021092640210927D02C4
:1007E000109269021092680210927C0210925F02CD
:1007F00010925E0210927B021092590210925802DF
:100800001092780210925B0210925A0210927A02B1
:1008100010926202109261021092790210925D02AF
:1008200010925C021092760280E090E0A0E0B1E4C9
:100830008093120190931301A0931401B0931501BA
:100840001092800210927E02109263021092770240
:100850001092600210926A02109275021092740255
:100860000895409168025091690284E090E041153A
:100870005105B1F080911001909111019C0197FFF9
:1008800002C02F5F3F4F359527954217530709F157
:1008900031E020E04817590709F030E0832F922F0C
:1008A00020915E0230915F0221153105A9F480622A
:1008B000209158023091590221153105B1F4806818
:1008C000209161023091620221153105B9F49260E4
:1008D000089582E090E0E4CF409108015091090131
:1008E0002417350729F78061E3CF40910601509125
:1008F00007012417350721F78064E2CF40910A01F0
:1009000050910B012417350709F491600895CF9396
:10091000DF93CAEED2E0CE018A5E924030914F0260
:1009200020915002321731F082EB93E00E948F0346
:100930008993F1CFFC01E651FD4F1082909317018E
:1009400080931601DF91CF910895CF93DF93FC013F
:1009500001900020E9F73197AF01481B590BBC010A
:1009600085E193E00E943F01EC0142E050E06CE33E
:1009700071E085E193E00E943F018C0F9D1FDF91A4
:10098000CF910895E0915102F09152028EE691E0EC
:1009900009954EE651E0FA0101900020E9F7AF0118
:1009A0004E5651406EE671E082EB93E00C94A90341
:1009B000FC0101900020E9F73197E81BF90BB19792
:1009C00028F4BC018FE891E00C94A0130895CF9314
:1009D000DF9385ED8093BC008091D2019091D3018B
:1009E000A091D401B091D5010796A11DB11D23E0BE
:1009F000B695A795979587952A95D1F72091BC0034
:100A000024FD03C010921A0236C04091D2015091C9
:100A1000D3016091D4017091D501452B462B472B12
:100A200069F30097A105B10541F025E32A95F1F797
:100A300000000197A109B109E1CF8091D10191E0B6
:100A40009093D0018823B9F0C091B800D091BA003A
:100A50008091BC008A7B8093BC0060E082E10E94B0
:100A60009E0260E083E10E949E020E946103D09397
:100A7000BA00C093B800DF91CF9108950F931F93F0
:100A8000CF93DF93E8010E94100FB801F8019F0196
:100A9000DF014D91CD01403269F0493059F0CE1758
:100AA000DF0751F09B018191882331F0DB018D93A9
:100AB000BD01F8CFFC01EBCFF9011082DF91CF919E
:100AC0001F910F9108950F931F93CF93DF93EC0124
:100AD000FB018081823541F40E94DA031882DF91A4
:100AE000CF911F910F91089591819D3309F06BC0B3
:100AF00088838181898382818A831B82928180EDB0
:100B0000890F823008F071C08381882329F08A30F0
:100B100019F08D3009F069C081E0913309F080E06F
:100B2000E081E354E13208F060C00E2E000CFF0BB0
:100B3000E456FA4F0C947B13D105F505F505BD0578
:100B4000F505D405F505F505F505CE05DD05D70553
:100B5000C505C805F505F505CB05F505F505E00561
:100B6000F505F505F505F505F505F505F505F505B5
:100B7000F505F505F505F505DA058093810288810F
:100B80008F3309F0ACCF1982AACF80937F02F7CFC1
:100B900080937D02F4CF80937C02F1CF80937B021F
:100BA000EECF80937A02EBCF80937902E8CF8093E7
:100BB0007802E5CF80937602E2CF80935702DFCFB1
:100BC00080937302DCCF9F3381F4928191110DC029
:100BD00088838DE389831B828081863599F144F473
:100BE0008D3409F444C08435A9F08FE38883C7CFDE
:100BF0008A3509F441C0843761F18735B1F74AE09D
:100C0000BE016E5F7F4F80917402909175020E94C9
:100C10002E0FB5CF60918202709183028091840281
:100C2000909185020E9443122AE037ED43E25CE393
:100C30000E94FA128E010E5F1F4F21E047E00E94D2
:100C40003E059DCF80917302811114C080E38A8399
:100C500096CF6091120170911301809114019091CF
:100C600015018E010E5F1F4F23E048E0E8CF809111
:100C70005702EACF81E3EBCF0E9431044AE0BE0184
:100C80006E5F7F4FC4CF6FE871E00C9463051F92D5
:100C90000F920FB60F9211242F933F934F935F93B0
:100CA0006F937F938F939F93AF93BF93EF93FF9334
:100CB00085E193E00E94BD01FF91EF91BF91AF915B
:100CC0009F918F917F916F915F914F913F912F9164
:100CD0000F900FBE0F901F9018951F920F920FB696
:100CE0000F9211242F938F939F93EF93FF93E09193
:100CF0002503F09126038081E0912B03F0912C03D2
:100D000082FD1BC0908180912E038F5F8F73209195
:100D10002F03821741F0E0912E03F0E0EB5EFC4FD1
:100D2000958F80932E03FF91EF919F918F912F913B
:100D30000F900FBE0F901F9018958081F4CF1F92D7
:100D40000F920FB60F9211242F933F938F939F937F
:100D5000AF93BF938091530290915402A09155029A
:100D6000B09156023091400223E0230F2D3758F501
:100D70000196A11DB11D20934002809353029093D0
:100D80005402A0935502B093560280914102909173
:100D90004202A0914302B09144020196A11DB11DEF
:100DA0008093410290934202A0934302B093440285
:100DB000BF91AF919F918F913F912F910F900FBE57
:100DC0000F901F90189526E8230F0296A11DB11DC4
:100DD000D2CF1F920F920FB60F9211242F933F93F1
:100DE0004F935F936F937F938F939F93AF93BF9333
:100DF000EF93FF938091B900887F803609F44AC051
:100E0000F0F5883209F4A7C018F5803109F49BC0C9
:100E1000B8F4882309F4F9C0883009F494C0FF912C
:100E2000EF91BF91AF919F918F917F916F915F9162
:100E30004F913F912F910F900FBE0F901F901895DB
:100E4000883109F488C0803251F78093190214C0A8
:100E5000803409F49DC040F48033B9F38833F9F647
:100E60008093190285ECB0C0803509F485C08835BF
:100E700009F496C0883499F60E94E704D0CF8839E7
:100E800009F48CC038F5883729F050F4883611F011
:100E9000803729F683E080931A021092180257C017
:100EA000883809F47BC0803919F0803809F0B7CF51
:100EB00080911802803208F071C0E091180281E040
:100EC0008E0F809318028091BB00F0E0E850FE4F37
:100ED00080833DC0803B39F0E0F4803A09F479C06A
:100EE000883A09F09CCF84E080931A021092F701AF
:100EF0001092F601E0914B02F0914C02099580911D
:100F0000F60181110FC081E08093F6011092D601A5
:100F100009C0803C09F4A6CF883C09F4A3CF883BE4
:100F200009F07DCFE091F70181E08E0F8093F7010A
:100F3000F0E0EA52FE4F80818093BB009091F70170
:100F40008091F60129C080913F028093BB0085EC1F
:100F50008093BC0064CF90913E0280913D0298172F
:100F600058F5E0913E0281E08E0F80933E02F0E062
:100F7000E35EFD4F8081E9CFE0913E0281E08E0F7C
:100F800080933E028091BB00F0E0E35EFD4F8083E2
:100F900090913E0280913D029817C8F285E8D8CF23
:100FA000E0913E0281E08E0F80933E028091BB0073
:100FB000F0E0E35EFD4F808380911C0281115CCFE5
:100FC00081E080931B0284EA8093BC0010921A0295
:100FD00026CF85EC8093BC0010921A0280911802F3
:100FE000803230F4E0911802F0E0E850FE4F1082B9
:100FF0006091180270E0E0914902F0914A0288EF96
:1010000091E00995109218020ACF1092190234CF7C
:10101000E5E1F3E01382128288EE93E0A0E0B0E015
:1010200084839583A683B7832CE131E031832083C9
:1010300025EC30E03587248724EC30E0378726879D
:1010400020EC30E0318B208B21EC30E0338B228B95
:1010500022EC30E0358B248B26EC30E0378B268B6E
:10106000118E128E138E148EE2EBF3E01382128235
:1010700084839583A683B7838EE291E091838083F6
:101080000895CF93DF93CDB7DEB7C858D1090FB617
:10109000F894DEBF0FBECDBF789484B5826084BD66
:1010A00084B5816084BD85B5826085BD85B581606C
:1010B00085BD80916E00816080936E0010928100EA
:1010C00080918100826080938100809181008160A5
:1010D0008093810080918000816080938000809166
:1010E000B10084608093B1008091B00081608093F2
:1010F000B00080917A00846080937A0080917A00B9
:10110000826080937A0080917A00816080937A0077
:1011100080917A00806880937A001092C10061E02B
:101120008DE00E94CC02E0912503F091260382E03D
:101130008083E0912103F09122031082E091230348
:10114000F091240380E1808310922D03E091290324
:10115000F0912A0386E08083E0912703F091280331
:10116000808180618083E0912703F0912803808152
:1011700088608083E0912703F09128038081806854
:101180008083E0912703F091280380818F7D808305
:101190008FE391E00E94A50480910E0190910F01D0
:1011A0002AE030E0B9010E94671370930F01609349
:1011B0000E0180910C0190910D01B9010E946713FD
:1011C00070930D0160930C018091100190911101B9
:1011D000B9010E946713709311016093100180910F
:1011E000080190910901B9010E94671370930901E8
:1011F000609308018091060190910701B9010E9456
:101200006713709307016093060180910401909128
:101210000501B9010E9467137093050160930401F1
:101220008091020190910301B9010E9467137093AC
:1012300003016093020180910A0190910B01B901B1
:101240000E94671370930B0160930A018091000163
:1012500090910101B9010E9467137093010160939D
:10126000000187E197EBA1EDB9E380936F029093C2
:101270007002A0937102B093720287E197EBA1ED27
:10128000B8E380936B0290936C02A0936D02B093CD
:101290006E0260E082E00E94CC0260E083E00E9487
:1012A000CC0260E084E00E94CC0260E085E00E9415
:1012B000CC0260E086E00E94CC0260E087E00E9401
:1012C000CC0260E088E00E94CC0260E089E00E94ED
:1012D000CC0260E08EE00E94CC0261E08AE00E94D5
:1012E000CC0261E08BE00E94CC0261E08CE00E94C5
:1012F000CC020E94DA032FB7F894809153029091A8
:101300005402A0915502B09156022FBF8093110351
:1013100090931203A0931303B093140388E4809373
:10132000B80088ED94E090930C0380930B0383E462
:1013300096E09093520280935102109250021092C4
:101340004F0210924E0210924D020E94610389E0FA
:1013500091E090934C0280934B0285E191E0909351
:101360004A028093490284E18093BA0087E894E0BE
:10137000909348028093470282EC94E09093460257
:10138000809345021AE0A12EB12C05E0802E912C0D
:10139000B0E02B2EB0E03B2EF0E2FF2EADE3EA2EC4
:1013A0002FB7F8948091530290915402A091550266
:1013B000B09156022FBF40911103509112036091DA
:1013C0001303709114038C019D01041B150B260B54
:1013D000370BB901A8014A3051056105710560F468
:1013E0000E94220321143104D9F20E94A90188230A
:1013F00099F20E940000CCCF8093110390931203C6
:10140000A0931303B09314038091820290918302FE
:10141000A0918402B09185020196A11DB11D813079
:1014200016ED910713E8A107B10508F0EDC0809310
:10143000820290938302A0938402B09385028091EC
:101440005702811151C082E00E94750221E0892B70
:1014500009F420E02093810283E00E94750221E0DC
:10146000892B09F420E020937F0284E00E9475021A
:1014700021E0892B09F420E020937D0285E00E9481
:10148000750221E0892B09F420E020937C0286E09C
:101490000E94750221E0892B09F420E020937B0251
:1014A00087E00E94750221E0892B09F420E0209357
:1014B000780288E00E94750221E0892B09F420E07F
:1014C00020937A0289E00E94750221E0892B09F4B9
:1014D00020E0209379028EE00E94750221E0892BA2
:1014E00009F420E0209376026091120170911301BB
:1014F000809114019091150120917602222309F424
:101500008CC020916F023091700240917102509115
:1015100072020E94D11160931201709313018093A3
:1015200014019093150180917402909175028F7748
:101530009E7F9093750280937402409012015090A8
:101540001301609014017090150120E030E040E23A
:1015500051E4C301B2010E94F51218160CF06AC0E2
:1015600080E890E00E94C80380916A0281111AC04D
:1015700040918102442309F47BC02091680230919C
:101580006902121613060CF062C08091100190914E
:101590001101B4010E946713261737070CF057C0DA
:1015A0000E94D303609180028AE00E949E026091B3
:1015B0007E028BE00E949E02609177028CE00E9486
:1015C0009E0280910F039091100301968A3091053D
:1015D0000CF041C29093100380930F030E942203EA
:1015E000809116019091170197FDFACEE0910B03BF
:1015F000F0910C038AEE92E00995EFEFFFEFF09384
:101600001701E0931601ECCE109282021092830231
:10161000109284021092850212CF9B01AC0160915E
:101620006B0270916C0280916D0290916E020E942B
:10163000D21171CF20E030E040EC50E4C301B201A0
:101640000E943E1287FF90CF80E091E08BCF809187
:1016500066029091670220910E0130910F0182176E
:1016600093070CF046C1019690936702809366023F
:1016700020917F022223B1F080917E02882309F419
:101680003CC1809164029091650260910C0170915F
:101690000D01861797070CF030C1019690936502F3
:1016A0008093640280917D02882309F46BC140918C
:1016B00066025091670280910E0190910F014817C8
:1016C00059070CF46DCF6090100170901101630107
:1016D00077FE03C03FEFC31AD30AD594C794009195
:1016E0006802109169020C151D050CF011C1C301AF
:1016F000880F991F880F991FB5010E946713601703
:10170000710714F4109280020F5F1F4F109369024B
:1017100000936802C016D10619F441E040936302B9
:101720002091680230916902809163028823B1F0B0
:101730002C153D059CF040915E0250915F021416FD
:10174000150664F4809108019091090197FD0196B6
:1017500095958795481759070CF422CF261537051C
:101760007CF081E080937E021092770210926002FA
:1017700010925D0210925C0210925B0210925A026B
:1017800080917C02882309F41DC1209110013091C1
:10179000110149E0429FC001439F900D1124B50102
:1017A0000E94671380916802909169026817790717
:1017B0000CF4F6CE80915E0290915F0220910801B8
:1017C00030910901821793072CF4019690935F02E0
:1017D00080935E02009158021091590280917B0221
:1017E000882309F4F9C080916302811104C082E06A
:1017F00090E00E94C80380910601909107010817AC
:10180000190734F40F5F1F4F1093590200935802C9
:1018100080917802882339F180916302882309F44A
:10182000F8C02091580230915902809106019091A0
:1018300007012817390724F480E290E00E94C803CA
:1018400040915A0250915B028091040190910501F0
:101850009A012F5F3F4F481759070CF0C4C03093CF
:101860005B0220935A0280917A02882309F4D4C043
:1018700080917702811104C084E090E00E94C80347
:101880008091060190910701B5010E946713809134
:10189000580290915902681779070CF481CE809113
:1018A00061029091620220910A0130910B0182172E
:1018B00093072CF4019690936202809361028091C9
:1018C0007902882309F46ECE80916302882361F047
:1018D000209161023091620280910A0190910B0186
:1018E000281739070CF0A2C080E490E00E94C803DA
:1018F00059CE21E020938002BBCE10927E0210923E
:101900006502109264021092670210926602CACEBB
:1019100080917C02811104CF061517050CF000CFD1
:1019200021113ECE80916302882379F080910A01D3
:1019300090910B01B4010E94671380916102909114
:101940006202681779070CF42BCE8091770281111F
:1019500004C084E090E00E94C8038091600281117D
:1019600004C080E190E00E94C8030F5F1F4F1093F6
:10197000690200936802C016D1060CF0D1CE109215
:101980006302CECE20916802309169024423B1F007
:10199000121613060CF0F4CE8091100190911101F3
:1019A000B4010E946713261737070CF4F9CD2150B4
:1019B00031093093690220936802E2CE12161306B1
:1019C000B4F3DECE80915E0290915F021816190684
:1019D0000CF000CF0197FACE101611060CF018CFBC
:1019E0000150110911CFA1E0A093770230935B025F
:1019F00020935A024091020150910301840F951FD8
:101A0000821793070CF02FCF88E090E00E94C80364
:101A10002ACF80E290E0FACF809161029091620239
:101A2000181619060CF04BCF019745CF80915C0238
:101A300090915D022091000130910101821793077E
:101A400034F4019690935D0280935C02ABCDB1E0DB
:101A5000B0936002A7CD1092100310920F038DE097
:101A60000E94750261E0892B09F060E08DE00E9420
:101A70009E0285E193E00E949D0118161906BCF5AF
:101A80008E0107581F4F6801EFE0CE0ED11C3801C0
:101A900085E193E00E947B011816190644F40C15A9
:101AA0001D0529F0D8018D938D011C92F1CFB30152
:101AB000CE018B599F4F0E9463058091730288234A
:101AC000B1F0B301CE0101960E94A01364E671E06B
:101AD000CE0101960E949513BE016B597F4FCE0136
:101AE00001960E949513CE0101960E94A504809153
:101AF0000D0390910E0301968A3091052CF490937A
:101B00000E0380930D036ACD10920E0310920D0305
:101B10007090730286E8C82E82E0D82E772049F0B4
:101B200084E580938602E092870298E8C92E92E0CD
:101B3000D92E6091820270918302809184029091EB
:101B400085020E9443122AE037ED43E25CE30E94E3
:101B5000FA12860121E047E00E943E05F60101905D
:101B60000020E9F73197F082DF011196772029F004
:101B700086E48183DF011396E282809181028823CB
:101B800009F4FAC081E38C931196FC921197CD0170
:101B90007110F4C0029620918002222309F4F6C04D
:101BA00021E3FC012083F1823296772049F0FC0189
:101BB00034962FE4DC0112962C9312971396EC9234
:101BC00080917F02882309F4E3C081E38083F1825E
:101BD000DF017110DFC0129680917E02882309F424
:101BE000DEC081E38C931196FC921197FD01711078
:101BF000D8C0329680917D02882309F4DAC081E34F
:101C00008083F182DF017110D6C0129680917C0230
:101C1000882309F4D5C081E38C931196FC92119727
:101C2000FD017110CFC0329680917B02882309F4A8
:101C3000D1C081E38083F182DF017110CDC01296A3
:101C400080917A02882309F4CCC081E38C931196A9
:101C5000FC921197FD017110C6C0329680917902F5
:101C6000882309F4C8C081E38083F182DF01711009
:101C7000C4C0129680917802882309F4C3C081E31E
:101C80008C931196FC921197FD017110BDC0329694
:101C900080917702882309F4BFC081E38083F182B9
:101CA0008F010E5F1F4F772031F08AE582838F010D
:101CB0000C5F1F4FE3820E94310440E1B8010E9493
:101CC0002E0FF80101900020E9F73197F082DF0133
:101CD0001196772029F083E68183DF011396E28253
:101CE00080917602882309F499C081E38C93119640
:101CF000FC9211976D01E2E0CE0ED11C772051F0DD
:101D0000F4E71296FC9312976D0104E0C00ED11C0B
:101D10001396EC926091120170911301809114015D
:101D200090911501860123E047E00E943E05F601EF
:101D300001900020E9F731978F010F5F1F4FF0826C
:101D40004AE0B801772069F068E671E0C8010E94B6
:101D5000A013D8010D900020E9F7BD016150710971
:101D600040E180917402909175020E942E0F86E8E6
:101D700092E00E94A50432CC80E305CF049626E6CB
:101D800012962C9312971396EC9205CF20E309CF6D
:101D900080E31CCF14968FE68283E3821DCF80E31D
:101DA00021CF349680E512968C9312971396EC927D
:101DB00021CF80E325CF149683E58283E38226CF6B
:101DC00080E32ACF34968CE412968C931297139664
:101DD000EC922ACF80E32ECF149683E48283E382B1
:101DE0002FCF80E333CF349688E412968C931297EA
:101DF0001396EC9233CF80E337CF14968EE4828330
:101E0000E38238CF80E33CCF34968EE612968C93F3
:101E100012971396EC923CCF80E340CF80E366CFDD
:101E2000EF920F931F93CF93DF93E80134E047FDC8
:101E300034E1042E000C550B57FF03C0519541951A
:101E40005109E32E022F242FAE010E94530FCE0121
:101E5000DF91CF911F910F91EF900895BB274A30EA
:101E600031F4992322F4BDE2909581959F4F0C9413
:101E70003A0FBB27FB015527AA27880F991FAA1FD6
:101E8000A41710F0A41B83955051B9F7A05DAA3395
:101E900008F0A95DA193009779F7B111B193119260
:101EA000CB010C948A11A9E0B0E0E9E5FFE00C94C5
:101EB000A0116A01F22EB02E102FFBE3AF2EA01658
:101EC00008F41BE31F5F012F27E0AE014F5F5F4F58
:101ED0000E94B210BC018981982F9970913009F449
:101EE0003FC09BE2E1FC04C09E2D9170E0FC3AC033
:101EF0005E2D5071E82FE87083FF46C084E0911199
:101F000001C083E0EF2DE81B8F1508F0E0E0D6015B
:101F10008E2F20E2552351F1992329F0D6019C936D
:101F2000C60101966C0196012D5F3F4FE2FE24C071
:101F30008EE4D6018C9391E411969C93119712969E
:101F40008C93D9018E2F90E281111BC0E20FF32FE9
:101F5000F11D10828EEF9FEF2996ECE00C94BC11DE
:101F60009DE2C6CF90E2C4CF2D9381508111FCCF6A
:101F7000CE0ED11CE0E0D0CF8EE6D6018C9391E658
:101F8000DBCF9D938150E0CF482F447082FF3DC04E
:101F900084E0911101C083E08F1510F4EF2DE81B50
:101FA000D6018E2F20E2552309F1992329F0D6017D
:101FB0009C93C60101966C0196012D5F3F4FE2FE96
:101FC0001BC089E4D6018C938EE411968C931197F3
:101FD00086E412968C93D9018E2F90E2882309F41F
:101FE000B5CF9D938150FACF2D9381508111FCCFB5
:101FF000CE0ED11CE0E0D9CF89E6D6018C938EE6D7
:1020000011968C93119786E6E4CF9B0177FF02C06F
:1020100030E020E0A1E0B0E0911102C0B0E0A0E02B
:10202000F9013196AE0FBF1F8B2C912CBB2009F408
:1020300061C05401EFEFAE1ABE0AAA0DBB1DFA161D
:102040001B0619F014F04F2D4A1B511188C0E3FCF8
:1020500059C07601A42FB0E2A1114FC0C40ED11C0B
:10206000992309F45BC040E0D6011196F6019083F4
:102070006D01552309F448C0012F060F9A81582F8E
:10208000507184FF03C0913309F4015010160CF015
:1020900047C0093008F008E0EEE2FE2E5B01A01A0E
:1020A000B10885019194819491082F3F320729F45A
:1020B000D601FC92F60131966F016217730794F115
:1020C000021713077CF5DB01A21BB30BAA24A39410
:1020D000B12CAC0EBD1EAA0DBB1D11968C912150CA
:1020E0003109D601119628153905F4F0F6018083DF
:1020F0006D01DBCFB12CA12CA0CFF701B1937F01F3
:10210000A150AACF9111B0CFD601942F50E302C0B5
:102110005D9391509111FCCFC40ED11C40E0ACCF27
:1021200001E0BACF80E3DBCF6217730731F4963357
:1021300088F4953311F4552369F0F6018083FD018D
:10214000842F90E2811108C0A40FB11D1C9290E071
:1021500080E002CF81E3F1CF91938150F3CF9111D1
:1021600083CF8ACF283008F027E03327DA01990F90
:10217000311D87FD916000966105710539F432606B
:102180002E5F3D9330E32A95E1F708959F3F30F0AD
:1021900080387105610509F03C5F3C5F3D939130EB
:1021A00008F08068911DDF93CF931F930F93FF92E8
:1021B000EF92192F987F9695E92F96959695E90FAE
:1021C000FF27EE53FF4F99273327EE24FF24A70163
:1021D000E70105900894079428F4360FE71EF81ECF
:1021E000491F511D660F771F881F991F0694A1F77D
:1021F0000590079428F4E70EF81E491F561FC11DCD
:10220000770F881F991F661F0694A1F70590079402
:1022100028F4F80E491F561FC71FD11D880F991F9C
:10222000661F771F0694A1F70590079420F4490FC5
:10223000561FC71FD81F990F661F771F881F069448
:10224000A9F784911095177041F0D695C7955795C9
:102250004795F794E7941A95C1F7E8E6F0E068949B
:102260001590159135916591959105907FE2739543
:10227000E118F10A430B560BC90BD009C0F7E10C6A
:10228000F11E431F561FC91FD01D7EF4703311F479
:102290008A95E6CFE894015030F0080F0AF4002741
:1022A000021708F4202F2395022F7A3328F079E3C0
:1022B0007D932A95E9F710C07D932A9589F60694B7
:1022C00097956795379517951794E118F10A430B81
:1022D000560BC90BD00998F023957E9173957A33EC
:1022E00008F070E37C932013B8F77E9170617D93C2
:1022F00030F0839571E37D9370E32A95E1F7112423
:10230000EF90FF900F911F91CF91DF91992787FD5B
:1023100090950895DC01FC01672F71917723E1F717
:10232000329704C07C916D9370836291AE17BF07A2
:10233000C8F308952F923F924F925F926F927F92CF
:102340008F929F92AF92BF92CF92DF92EF92FF92C5
:102350000F931F93CF93DF93CDB7DEB7CA1BDB0B71
:102360000FB6F894DEBF0FBECDBF09942A88398816
:1023700048885F846E847D848C849B84AA84B9841D
:10238000C884DF80EE80FD800C811B81AA81B98129
:10239000CE0FD11D0FB6F894DEBF0FBECDBFED013D
:1023A00008955058BB27AA270E94E9110C94BB122C
:1023B0000E94AD1238F00E94B41220F039F49F3F11
:1023C00019F426F40C94AA120EF4E095E7FB0C9491
:1023D000A412E92F0E94CC1258F3BA1762077307B0
:1023E0008407950720F079F4A6F50C94EE120EF40C
:1023F000E0950B2EBA2FA02D0B01B90190010C0115
:10240000CA01A0011124FF27591B99F0593F50F42C
:10241000503E68F11A16F040A22F232F342F442784
:10242000585FF3CF469537952795A795F04053957C
:10243000C9F77EF41F16BA0B620B730B840BBAF04C
:102440009150A1F0FF0FBB1F661F771F881FC2F7B7
:102450000EC0BA0F621F731F841F48F487957795CB
:102460006795B795F7959E3F08F0B0CF9395880F85
:1024700008F09927EE0F9795879508950E9480128E
:1024800008F481E00895E89409C097FB3EF4909524
:102490008095709561957F4F8F4F9F4F9923A9F03D
:1024A000F92F96E9BB279395F695879577956795CC
:1024B000B795F111F8CFFAF4BB0F11F460FF1BC010
:1024C0006F5F7F4F8F4F9F4F16C0882311F096E9A3
:1024D00011C0772321F09EE8872F762F05C0662351
:1024E00071F096E8862F70E060E02AF09A95660F0A
:1024F000771F881FDAF7880F9695879597F90895C3
:10250000990F0008550FAA0BE0E8FEEF1616170604
:10251000E807F907C0F012161306E407F50798F06C
:10252000621B730B840B950B39F40A2661F0232B85
:10253000242B252B21F408950A2609F4A140A69501
:102540008FEF811D811D089597F99F6780E870E0E6
:1025500060E008959FEF80EC089500240A94161619
:10256000170618060906089500240A941216130681
:10257000140605060895092E0394000C11F488230F
:1025800052F0BB0F40F4BF2B11F460FF04C06F5F2B
:102590007F4F8F4F9F4F089557FD9058440F551F01
:1025A00059F05F3F71F04795880F97FB991F61F0D5
:1025B0009F3F79F087950895121613061406551F4C
:1025C000F2CF4695F1DF08C0161617061806991FB8
:1025D000F1CF86957105610508940895E894BB27AD
:1025E00066277727CB0197F908950E94801208F497
:1025F0008FEF08950E940D130C94BB120E94AD1230
:1026000038F00E94B41220F0952311F00C94A4121B
:102610000C94AA1211240C94EF120E94CC1270F3A5
:10262000959FC1F3950F50E0551F629FF001729F77
:10263000BB27F00DB11D639FAA27F00DB11DAA1F86
:10264000649F6627B00DA11D661F829F2227B00DD3
:10265000A11D621F739FB00DA11D621F839FA00D5E
:10266000611D221F749F3327A00D611D231F849FAE
:10267000600D211D822F762F6A2F11249F57504005
:102680009AF0F1F088234AF0EE0FFF1FBB1F661F80
:10269000771F881F91505040A9F79E3F510580F049
:1026A0000C94A4120C94EF125F3FE4F3983ED4F321
:1026B000869577956795B795F795E7959F5FC1F7ED
:1026C000FE2B880F911D9695879597F9089597FB96
:1026D000072E16F4009407D077FD09D00E948113CD
:1026E00007FC05D03EF4909581959F4F0895709515
:1026F00061957F4F0895EE0FFF1F0590F491E02D37
:102700000994AA1BBB1B51E107C0AA1FBB1FA61738
:10271000B70710F0A61BB70B881F991F5A95A9F78A
:1027200080959095BC01CD010895FB01DC010D90D1
:102730000020E9F7119701900D920020E1F708952C
:10274000FB01DC0101900D920020E1F70895F8945F
:02275000FFCFB9
:10275200C409F4011027D007D007D007D007D0074B
:10276200D00700000041FFFF00000000DF013F0131
:102772006C012C029D017B018F0100000000B4035B
:10278200A903C5037F03A2038F0380030D0A00235D
:10279200204661627269636174696F6E20506C6178
:1027A2006E742053696D756C6174696F6E20563456
:0E27B2002E303300203E2000573D30780000CE
:00000001FF
