:100000000C94F1000C9419010C9419010C94190131
:100010000C9419010C9419010C9419010C941901F8
:100020000C9419010C9419010C9419010C941901E8
:100030000C9419010C9419010C9419010C941901D8
:100040000C941B080C9419010C94E9070C94C30739
:100050000C9419010C9419010C9419010C941901B8
:100060000C9465080C94190100407A10F35A00A012
:10007000724E18090010A5D4E80000E87648170071
:1000800000E40B54020000CA9A3B000000E1F505B1
:10009000000080969800000040420F000000A086FB
:1000A00001000000102700000000E803000000002D
:1000B0006400000000000A000000000001000000D1
:1000C00000002C76D888DC674F0823DFC1DFAE59EB
:1000D000E1B1B796E5E3E453C63AE651997696E87E
:1000E000E6C28426EB898C9B62ED407C6FFCEFBC02
:1000F0009C9F40F2BAA56FA5F490055A2AF75C932D
:100100006B6CF9676DC11BFCE0E40D47FEF520E662
:10011000B500D0ED902E0300943577050080841E45
:10012000080000204E0A000000C80C333333330FA0
:10013000986E12831141EF8D2114893BE65516CF3D
:10014000FEE6DB18D1844B381BF77C1D901DA4BB49
:10015000E424203284725E228100C9F124ECA1E5FE
:100160003D2700000000240027002A0000000000B6
:10017000250028002B000000000023002600290095
:10018000040404040404040402020202020203033D
:100190000303030301020408102040800102040845
:1001A00010200102040810200000000800020100D5
:1001B0000003040700000000000000002320576136
:1001C0007368696E67204D616368696E6520536965
:1001D0006D756C6174696F6E2056332E313300007B
:1001E000840911241FBECFEFD8E0DEBFCDBF11E0E0
:1001F000A0E0B1E0EAE0FEE202C005900D92AA3371
:10020000B107D9F723E0AAE3B1E001C01D92A538F8
:10021000B207E1F710E0C1EFD0E004C02197FE0182
:100220000E94EB16C03FD107C9F70E94BD090C948C
:1002300003170C940000E0911102F0911202309724
:1002400029F010921A021092190209940895CF937E
:10025000DF93AC01E0911302F09114023097F1F0BA
:1002600090911C0280911B029817C0F090E0292FFA
:1002700030E02617370754F4D901A458BE4F240F95
:10028000351FE90128812C939F5FF1CF10921C024A
:1002900060931B02CB01DF91CF910994DF91CF9145
:1002A0000895AF92BF92CF92DF92EF92FF920F9399
:1002B0001F93CF93DF936C017B018B01040F151FFC
:1002C000EB015E01AE18BF08C017D10759F0699164
:1002D000D601ED91FC910190F081E02DC6010995C8
:1002E000892B79F7C501DF91CF911F910F91FF9075
:1002F000EF90DF90CF90BF90AF900895FC01538DA9
:10030000448D252F30E0842F90E0821B930B5417EF
:1003100010F0CF96089501970895FC01918D828D7C
:10032000981761F0A28DAE0FBF2FB11D5D968C9115
:10033000928D9F5F9F73928F90E008958FEF9FEF54
:100340000895FC01918D828D981731F0828DE80F10
:10035000F11D858D90E008958FEF9FEF0895FC01CA
:10036000918D228D892F90E0805C9F4F821B910997
:100370008F73992708958CED92E00E94AF0121E0E0
:10038000892B09F420E0822F089580E090E0892BEA
:1003900029F00E94BB0181110C9400000895FC011A
:1003A000A48DA80FB92FB11DA35ABF4F2C91848DD6
:1003B00090E001968F739927848FA689B7892C9333
:1003C000A089B1898C91837080648C93938D848D86
:1003D000981306C00288F389E02D80818F7D808389
:1003E0000895EF92FF920F931F93CF93DF93EC0149
:1003F00081E0888F9B8D8C8D98131AC0E889F989CC
:10040000808185FF15C09FB7F894EE89FF896083CE
:10041000E889F98980818370806480839FBF81E04F
:1004200090E0DF91CF911F910F91FF90EF90089591
:10043000F62E0B8D10E00F5F1F4F0F731127E02E6C
:100440008C8D8E110CC00FB607FCFACFE889F989A4
:10045000808185FFF5CFCE010E94CF01F1CFEB8DDA
:10046000EC0FFD2FF11DE35AFF4FF0829FB7F89478
:100470000B8FEA89FB8980818062CFCFCF93DF9396
:10048000EC01888D8823B9F0AA89BB89E889F989AC
:100490008C9185FD03C0808186FD0DC00FB607FCE1
:1004A000F7CF8C9185FFF2CF808185FFEDCFCE0114
:1004B0000E94CF01E9CFDF91CF910895833081F081
:1004C00028F4813099F08230A9F008958730A9F09E
:1004D0008830C9F08430B1F4809180008F7D03C0F2
:1004E000809180008F7780938000089584B58F7706
:1004F00084BD089584B58F7DFBCF8091B0008F7748
:100500008093B00008958091B0008F7DF9CFCF9394
:10051000DF93282F30E0F901E855FE4F8491F9016F
:10052000EC56FE4FD491F901E058FE4FC491CC2314
:10053000A1F081110E945E02EC2FF0E0EE0FFF1F90
:10054000EA58FE4FA591B491EC91ED2381E090E043
:1005500009F480E0DF91CF91089580E090E0FACF38
:100560001F93CF93DF93282F30E0F901E855FE4F1A
:100570008491F901EC56FE4FD491F901E058FE4FF9
:10058000C491CC23A9F0162F81110E945E02EC2F9A
:10059000F0E0EE0FFF1FE459FE4FA591B4918FB725
:1005A000F894EC91111108C0D095DE23DC938FBF35
:1005B000DF91CF911F910895DE2BF8CFCF93DF937A
:1005C00090E0FC01EC56FE4F249180589E4FFC01B8
:1005D00084918823D1F090E0880F991FFC01EE5997
:1005E000FE4FA591B491FC01E459FE4FC591D49101
:1005F00061110EC09FB7F8948C91E22FE0958E2385
:100600008C932881E223E8839FBFDF91CF910895E7
:100610008FB7F894EC91E22BEC938FBFF6CF3FB7F6
:10062000F89480910D0290910E02A0910F02B0916A
:10063000100226B5A89B05C02F3F19F00196A11DF9
:10064000B11D3FBFBA2FA92F982F8827BC01CD011C
:10065000620F711D811D911D42E0660F771F881F7B
:10066000991F4A95D1F70895CF92DF92EF92FF92AA
:100670000E940F036B017C010E940F036C197D091E
:100680008E099F09683E734081059105A8F3FF908C
:10069000EF90DF90CF9008952091C201260F33276D
:1006A000331F21323105ECF42091E601FC0190E08A
:1006B00080E0243069F082E00895A091C201219188
:1006C000AC014E555E4FA40FB52FB11D2C93019672
:1006D000861798F38091C201680F6093C20180E091
:1006E000089581E008951092E60181E08093E80189
:1006F0001092E70161E082E10E94B00261E083E1D3
:100700000E94B002E9EBF0E080818E7F80838081DF
:100710008D7F808388E48093B80085E48093BC005B
:1007200008950895E0911C0280911B02E81730F4AF
:10073000F0E0E458FE4F808190E008958FEF9FEF46
:10074000089590911C0280911B022FEF3FEF9817A4
:1007500048F4E92FF0E0E458FE4F208130E09F5F3D
:1007600090931C02C901089580911B0290911C0274
:10077000891B990B0895CF93DF93CB01EA01642F76
:100780000E944C03CE01DF91CF910895CF93DF9368
:100790001F92CDB7DEB7698361E0CE0101960E945A
:1007A0004C0381E090E00F90DF91CF91089590E0AD
:1007B00080E008952091C2023091C302822B932BD6
:1007C0009093C3028093C20208951092BE021092C9
:1007D000BF021092C0021092C10280E090E0A0E936
:1007E000B1E48093020190930301A0930401B093BC
:1007F00005011092D9021092B6021092B70210921F
:10080000B8021092B9021092DA021092D502109238
:10081000D6021092D7021092D8021092BA02109209
:10082000BB021092BC021092BD02109223021092E1
:10083000240210922502109226021092CC021092ED
:10084000CB021092CD021092CE021092CF021092E3
:10085000D0021092C7021092C8021092C9021092E0
:10086000CA021092D1021092D2021092D3021092B8
:10087000D4021092C6021092C5021092C3021092C6
:10088000C2020895CF93DF93CBE8D2E0CE018B581C
:10089000924030911B0220911C02321731F089E7FF
:1008A00093E00E94A1038993F1CFFC01E557FD4F2E
:1008B00010829093010180930001DF91CF91089500
:1008C00042E050E06EE271E08CED92E00C94510158
:1008D000CF93DF93FC0101900020E9F73197AF013E
:1008E000481B590BBC018CED92E00E945101EC01B8
:1008F0000E9460048C0F9D1FDF91CF910895E091BD
:100900001D02F0911E028AE391E009954AE351E04D
:10091000FA0101900020E9F7AF014A5351406AE320
:1009200071E089E793E00C94BB03FC010190002087
:10093000E9F73197E81BF90BB19728F4BC018BE577
:1009400091E00C94FC160895CF93DF9385ED80938E
:10095000BC0080919E0190919F01A091A001B09157
:10096000A1010796A11DB11D23E0B695A795979506
:1009700087952A95D1F72091BC0024FD03C01092E1
:10098000E60136C040919E0150919F016091A00107
:100990007091A101452B462B472B69F30097A105C8
:1009A000B10541F025E32A95F1F700000197A1096F
:1009B000B109E1CF80919D0191E090939C01882342
:1009C000B9F0C091B800D091BA008091BC008A7B88
:1009D0008093BC0060E082E10E94B00260E083E1AD
:1009E0000E94B0020E947303D093BA00C093B80073
:1009F000DF91CF9108950F931F93CF93DF93E80179
:100A00000E94C611B801F8019F01DF014D91CD018F
:100A1000403269F0493059F0CE17DF0751F09B01A1
:100A20008191882331F0DB018D93BD01F8CFFC016A
:100A3000EBCFF9011082DF91CF911F910F910895B3
:100A4000CF92DF92EF92FF920F931F93CF93DF939A
:100A5000EC01FB018081823561F40E94E50318827C
:100A6000DF91CF911F910F91FF90EF90DF90CF908A
:100A7000089588838DE389831B8281818D3309F0FA
:100A8000E0C1828190ED980F923048F493819923D0
:100A900039F19A3029F19D3019F190E023C09A3054
:100AA000E0F38B3221F090E020E08D3239F4838145
:100AB000805321E08A3008F020E090E0808180358A
:100AC00009F428C1E4F5893409F403C16CF48434D1
:100AD00009F471C0883409F407C18FE3888360C0CA
:100AE0008A8391E021E0EACF8C3409F4BEC08F34D0
:100AF000A1F7222391F3CF0102960E94E411BC01D9
:100B0000990F880B990B0E94C9152091C70230914B
:100B1000C8024091C9025091CA020E94AE146B01F2
:100B20007C0120E030E048E452E40E947916181677
:100B30000CF0FBC080E098E00E94DA03CECF8F3645
:100B4000C1F284F4863509F471C1873531F69923F1
:100B500021F28281803309F0C0CF1092C30210923B
:100B6000C2021EC0823709F4F2C0843709F0B5CF43
:100B7000992309F4B2CF828191E0813309F090E0AA
:100B80009093DB02813391F081E090E0A0E0B0E04F
:100B90008093060190930701A0930801B093090187
:100BA00088818F3309F05CCF19825ACF84E190E0BD
:100BB000A0E0B0E0EDCF992309F48FCF828191E0DE
:100BC000813309F090E09093DA02813309F4A9C1EE
:100BD0008091D902882331F084E090E00E94DA030A
:100BE00080E3A0C120E030E044E352E460910201E0
:100BF0007091030180910401909105010E94791682
:100C000018161CF488E090E0E9CF20E030E040E4E2
:100C100050E46091D5027091D6028091D7029091F4
:100C2000D8020E94791618161CF480E190E0D6CF05
:100C3000C090D102D090D202E090D302F090D402C2
:100C400020E030E0A901C701B6010E94791618160C
:100C50004CF020E030E0A901C701B6010E941A154E
:100C600087FFBECF80E290E0B9CF222309F435CFD1
:100C70008091DA0281112AC0CF0102960E94E4110C
:100C8000BC01990F880B990B0E94C9156B017C015F
:100C900020E030E040E151E40E941A1518168CF073
:100CA000C092CD02D092CE02E092CF02F092D0025A
:100CB0006091CD027091CE028091CF029091D002CE
:100CC000DDC080E094E00E94DA03F2CF82E090E0A1
:100CD000FACF992309F401CF81E09281913309F091
:100CE00080E08093CC025CCF992309F4F6CE928108
:100CF00081E0913309F080E02091DA02211107C0F0
:100D0000913329F481E090E00E94DA0349CF809387
:100D1000D90246CF992309F4E0CE81E09281913344
:100D200009F080E08093CB023BCFC092C702D09203
:100D3000C802E092C902F092CA028E010E5F1F4FF4
:100D400023E049E0C701B6010E94FB0429CF22231A
:100D500009F4C3CECF0102960E94E4118C01809168
:100D6000DA02811105C081E090E00E94DA033AC006
:100D7000C80117FF04C088279927801B910B8F3665
:100D800091059CF020E030E040E85FE36091D502FF
:100D90007091D6028091D7029091D8020E94791664
:100DA00018161CF480E092E0E0CFC80184529A4FFC
:100DB000893B9B40C0F510161106FCF420E030E0A2
:100DC00040E05FEB6091D1027091D2028091D3023A
:100DD0009091D4020E941A1587FD22C01093C6027A
:100DE0000093C5024AE0BE016E5F7F4F8091C5024D
:100DF0009091C6020E940212D3CE0115110571F323
:100E000020E030E040E05FE36091D1027091D202D7
:100E10008091D3029091D4020E9479161816F4F6AC
:100E200080E290E0A2CF80E490E09FCF992309F484
:100E300054CE81E09281913309F080E08093C40226
:100E4000AFCE8F3309F049CE8281811146CE8081A9
:100E5000873509F48BC004F58C3409F429CFA4F448
:100E6000813409F461C0833409F037CE6091020106
:100E70007091030180910401909105018E010E5F34
:100E80001F4F21E047E060CF843581F1863509F0BE
:100E900024CE8091C40242C0823709F457C0A4F422
:100EA0008B3609F44AC08F3609F017CE6091C7021D
:100EB0007091C8028091C9029091CA028E010E5FA2
:100EC0001F4F23E049E040CF843731F1873709F0E5
:100ED00004CE6091BA027091BB028091BC029091E5
:100EE000BD028E010E5F1F4F22E0CCCF6091BE028B
:100EF0007091BF028091C0029091C1020E94C715FB
:100F00002AE037ED43E25CE30E947E168E010E5F1D
:100F10001F4F23E04AE018CF8091DB02882309F4B9
:100F20005FCE81E38A833CCE6091D5027091D60278
:100F30008091D7029091D802A1CF6091B6027091B2
:100F4000B7028091B8029091B902CBCF6091D102E3
:100F50007091D2028091D3029091D4020E94911597
:100F6000CB014AE0BE016E5F7F4F44CF4AE0BE0135
:100F70006E5F7F4F8091C2029091C3023BCF6BE5C1
:100F800071E00C9420051F920F920FB60F9211245E
:100F90002F933F934F935F936F937F938F939F9381
:100FA000AF93BF93EF93FF938CED92E00E94CF013C
:100FB000FF91EF91BF91AF919F918F917F916F9131
:100FC0005F914F913F912F910F900FBE0F901F9007
:100FD00018951F920F920FB60F9211242F938F9393
:100FE0009F93EF93FF93E091EC02F091ED028081EB
:100FF000E091F202F091F30282FD1BC0908180919A
:10100000F5028F5F8F732091F602821741F0E09115
:10101000F502F0E0E452FD4F958F8093F502FF91C9
:10102000EF919F918F912F910F900FBE0F901F9076
:1010300018958081F4CF1F920F920FB60F92112452
:101040002F933F938F939F93AF93BF9380911F02F2
:1010500090912002A0912102B091220230910C02C5
:1010600023E0230F2D3758F50196A11DB11D2093C4
:101070000C0280931F0290932002A0932102B09350
:10108000220280910D0290910E02A0910F02B09168
:1010900010020196A11DB11D80930D0290930E02C6
:1010A000A0930F02B0931002BF91AF919F918F91C7
:1010B0003F912F910F900FBE0F901F90189526E82B
:1010C000230F0296A11DB11DD2CF1F920F920FB612
:1010D0000F9211242F933F934F935F936F937F93BE
:1010E0008F939F93AF93BF93EF93FF938091B9003A
:1010F000887F803609F44AC0F0F5883209F4A7C029
:1011000018F5803109F49BC0B8F4882309F4F9C0BC
:10111000883009F494C0FF91EF91BF91AF919F91F6
:101120008F917F916F915F914F913F912F910F9090
:101130000FBE0F901F901895883109F488C0803237
:1011400051F78093E50114C0803409F49DC040F448
:101150008033B9F38833F9F68093E50185ECB0C0AC
:10116000803509F485C0883509F496C0883499F62D
:101170000E94A404D0CF883909F48CC038F5883790
:1011800029F050F4883611F0803729F683E08093F7
:10119000E6011092E40157C0883809F47BC0803919
:1011A00019F0803809F0B7CF8091E401803208F05F
:1011B00071C0E091E40181E08E0F8093E4018091A1
:1011C000BB00F0E0EC53FE4F80833DC0803B39F024
:1011D000E0F4803A09F479C0883A09F09CCF84E0C1
:1011E0008093E6011092C3011092C201E0911702B0
:1011F000F091180209958091C20181110FC081E020
:101200008093C2011092A20109C0803C09F4A6CFCC
:10121000883C09F4A3CF883B09F07DCFE091C3015E
:1012200081E08E0F8093C301F0E0EE55FE4F808188
:101230008093BB009091C3018091C20129C080912D
:101240000B028093BB0085EC8093BC0064CF90912F
:101250000A0280910902981758F5E0910A0281E08C
:101260008E0F80930A02F0E0E751FE4F8081E9CFB4
:10127000E0910A0281E08E0F80930A028091BB0008
:10128000F0E0E751FE4F808390910A0280910902BD
:101290009817C8F285E8D8CFE0910A0281E08E0F56
:1012A00080930A028091BB00F0E0E751FE4F8083FB
:1012B0008091E80181115CCF81E08093E70184EAAD
:1012C0008093BC001092E60126CF85EC8093BC0091
:1012D0001092E6018091E401803230F4E091E40163
:1012E000F0E0EC53FE4F10826091E40170E0E09179
:1012F0001502F091160284EC91E009951092E40138
:101300000ACF1092E50134CFECEDF2E013821282A5
:1013100088EE93E0A0E0B0E084839583A683B78352
:101320002EE031E03183208325EC30E035872487BF
:1013300024EC30E03787268720EC30E0318B208B9F
:1013400021EC30E0338B228B22EC30E0358B248B88
:1013500026EC30E0378B268B118E128E138E148E76
:10136000E9E7F3E01382128284839583A683B7832F
:1013700080E291E0918380830895CF93DF93CDB78E
:10138000DEB7CC59D1090FB6F894DEBF0FBECDBF82
:10139000789484B5826084BD84B5816084BD85B550
:1013A000826085BD85B5816085BD80916E0081605C
:1013B00080936E0010928100809181008260809302
:1013C0008100809181008160809381008091800004
:1013D0008160809380008091B10084608093B1002F
:1013E0008091B00081608093B00080917A00846029
:1013F00080937A0080917A00826080937A00809155
:101400007A00816080937A0080917A00806880936E
:101410007A001092C10061E08DE00E94DE02E0914E
:10142000EC02F091ED0282E08083E091E802F0911D
:10143000E9021082E091EA02F091EB0280E1808300
:101440001092F402E091F002F091F10286E08083C4
:10145000E091EE02F091EF02808180618083E09163
:10146000EE02F091EF02808188608083E091EE02CD
:10147000F091EF02808180688083E091EE02F0912C
:10148000EF0280818F7D80830CEB11E0F801649185
:10149000662341F08CED92E00E94F1010F5F1F4F37
:1014A000892BA1F70E94600460E082E00E94DE02C6
:1014B00060E083E00E94DE0260E084E00E94DE02E1
:1014C00061E088E00E94DE020E94E5032FB7F894F5
:1014D00080911F0290912002A0912102B0912202DE
:1014E0002FBF8093B2029093B302A093B402B09343
:1014F000B50288E48093B80085E994E09093AD024A
:101500008093AC028FEB97E090931E0280931D02B4
:1015100010921C0210921B0210921A0210921902D1
:101520000E9473038BE191E090931802809317025D
:1015300087E291E0909316028093150284E18093F4
:10154000BA0082E494E090931402809313028FE730
:1015500094E0909312028093110260E2262E5DE3E4
:10156000352E2FB7F89480911F0290912002A09100
:101570002102B09122022FBF4091B2025091B302DA
:101580006091B4027091B5026C017D01C41AD50A54
:10159000E60AF70AB701A6014A305105610571054F
:1015A00078F40E94340340E0E42E40E0F42EEF286B
:1015B000C1F20E94BB01882391F20E940000CFCFAC
:1015C0008093B2029093B302A093B402B093B50299
:1015D0008DE00E94870261E0892B09F060E08DE0D8
:1015E0000E94B00282E00E9487028C0181E0011516
:1015F000110509F480E08093CC0283E00E94870209
:10160000C757DF4F99838883C958D04081E0C757B7
:10161000DF4FC880D980C958D040CD2809F480E078
:101620008093CB0284E00E94870221E0009709F4B6
:1016300020E02093D902C0900601D0900701E090ED
:101640000801F0900901CB56DF4FC882D982EA82A7
:10165000FB82C559D0404091BE025091BF026091BB
:10166000C0027091C1024C0D5D1D6E1D7F1D409327
:10167000BE025093BF026093C0027093C102C0903B
:10168000D502D090D602E090D702F090D802C3578E
:10169000DF4FC882D982EA82FB82CD58D040409089
:1016A000020150900301609004017090050120E058
:1016B00030E040E450E4892B09F470C3C701B6015F
:1016C0000E94AE14CF56DF4F688379838A839B8351
:1016D000C159D04020E030E04AEF54E40E947E1629
:1016E00020E030E048EB51E40E941F156B017C01C3
:1016F000CB56DF4F688179818A819B81C559D04063
:101700000E94C9152AE037ED43E25CE30E947E1691
:101710004B015C01A70196010E941F1520E030E0FB
:1017200042E053E40E947E16A30192010E94AE148F
:10173000C756DF4F688379838A839B83C959D0401A
:10174000A5019401C701B6010E94AE149B01AC0132
:10175000C701B6010E941F159B01AC01C756DF4FA0
:10176000688179818A819B81C959D0400E947E1607
:10177000609302017093030180930401909305012B
:10178000A30192010E94AD14CF56DF4F2881398109
:101790004A815B81C159D0400E947E1629E93BEB0A
:1017A00046E95AE30E947E169B01AC016091B602A5
:1017B0007091B7028091B8029091B9020E94AE1464
:1017C0006093B6027093B7028093B8029093B90207
:1017D0000115110549F4C757DF4FE880F980C95852
:1017E000D040EF2809F451C220E030E040EA50E454
:1017F0006091CD027091CE028091CF029091D00283
:101800000E941F15C756DF4F688379838A839B83A5
:10181000C959D0407090BA026090BB025090BC028F
:101820004090BD02CB56DF4F688179818A819B81D0
:10183000C559D0400E94C9154B015C01272D362D9A
:10184000452D542DC756DF4F688179818A819B8150
:10185000C959D0400E94AD1420E030E048E452E481
:101860000E941F15A50194010E947E16CF56DF4FDE
:10187000688379838A839B83C159D040C12CD12C42
:101880007601012B51F026EA3BE944EC5AE3C5010D
:10189000B4010E947E166B017C01C757DF4F08819F
:1018A0001981C958D040012B09F4CDC22FE632E18D
:1018B00043E85AE3C501B4010E947E16C757DF4FC3
:1018C000688379838A839B83C958D04020E030E0C5
:1018D00040E85FE3C357DF4F688179818A819B814C
:1018E000CD58D0400E941A1518160CF464C0809090
:1018F000D1029090D202A090D302B090D40220E006
:1019000030E04FEA53E4C501B4010E94791618167D
:1019100054F020E030E04FEA53ECC501B4010E94DE
:101920001A1587FF48C020E030E0A901C501B401C5
:101930000E94791618160CF08FC220E030E04FEAB2
:1019400053E4C501B4010E94AD149B01AC01672DA5
:10195000762D852D942D0E947E1620E030E543E4FF
:1019600057E40E941F154B015C019B01AC01672DE0
:10197000762D852D942D0E941A1587FF04C0872C83
:10198000962CA52CB42C9401A501C701B6010E9488
:10199000AE146B017C019401A501672D762D852D78
:1019A000942D0E94AD146093BA027093BB02809391
:1019B000BC029093BD0220E030E040E450E4C35705
:1019C000DF4F688179818A819B81CD58D0400E9408
:1019D000AE144B015C012091020130910301409152
:1019E0000401509105010E947E162B013C0120E06C
:1019F00030E040E851E4C701B6010E947E169B0129
:101A0000AC01C301B2010E94AE142B013C01A7013D
:101A10009601C501B4010E94AE149B01AC01C30143
:101A2000B2010E941F15609302017093030180931D
:101A300004019093050120E030E0A901C757DF4F72
:101A4000688179818A819B81C958D0400E9479162A
:101A500018160CF041C02091BA023091BB0240919F
:101A6000BC025091BD02C357DF4F688179818A81E2
:101A70009B81CD58D0400E94AE142B013C0120E048
:101A800030E0A9010E947916181634F58090C7023B
:101A90009090C802A090C902B090CA02A30192011E
:101AA000C757DF4F688179818A819B81C958D040AF
:101AB0000E941F15A50194010E947E169B01AC0196
:101AC000C501B4010E94AD146093C7027093C802AF
:101AD0008093C9029093CA0220E030E0A90160918E
:101AE000C7027091C8028091C9029091CA020E94F7
:101AF0001A1587FF08C01092C7021092C8021092F0
:101B0000C9021092CA0220E030E0A901CF56DF4F8F
:101B1000688179818A819B81C159D0400E94791660
:101B200018160CF064C0C757DF4F288139814A81ED
:101B30005B81C958D040C357DF4F688179818A8162
:101B40009B81CD58D0400E94AD149B01AC01CF5673
:101B5000DF4F688179818A819B81C159D0400E9481
:101B60001A1587FF44C08090BA029090BB02A090E3
:101B7000BC02B090BD02A5019401C756DF4F688139
:101B800079818A819B81C959D0400E94791687FD4D
:101B90002EC0CF56DF4F288139814A815B81C159E0
:101BA000D040C357DF4F688179818A819B81CD58AE
:101BB000D0400E94AD146093D5027093D6028093FA
:101BC000D7029093D802A5019401CF56DF4F6881C8
:101BD00079818A819B81C159D0400E94AE14609363
:101BE000BA027093BB028093BC029093BD028090B6
:101BF000D5029090D602A090D702B090D80220E0F3
:101C000030E0A901C501B4010E941A15181644F06C
:101C1000C757DF4F188219821A821B82C958D040D9
:101C2000A5019401C701B6010E94AE14C757DF4F4A
:101C3000288139814A815B81C958D0400E94AD1406
:101C40004B015C0120E030E0A9010E941A1587FDDC
:101C50000BC18092D5029092D602A092D702B09288
:101C6000D802A7019601609123027091240280910D
:101C70002502909126020E94AE1460932302709375
:101C800024028093250290932602CB56DF4F688171
:101C900079818A819B81C559D0400E94C91520E86D
:101CA00030E645EE5BE30E947E169B01AC0160E0EE
:101CB00070E080E89FE30E94AD142B013C0100918D
:101CC000C5021091C602B801012E000C880B990BB9
:101CD0000E94C9154B015C012091D1023091D202C2
:101CE0004091D3025091D4020E947E1620E030E051
:101CF000A9010E941A1587FF08C01092D102109204
:101D0000D2021092D3021092D4022091D1023091CB
:101D1000D2024091D3025091D402C301B2010E9479
:101D20007E166B017C01A301920160E070E080E807
:101D30009FE30E94AD14A50194010E947E169B01B1
:101D4000AC01C701B6010E94AE144B015C01809248
:101D5000D1029092D202A092D302B092D402012B6F
:101D600009F095C020E030E0A9010E94791618160C
:101D70000CF083C02DEC3CEC4CEC5DE3C501B401F0
:101D80000E941A1518160CF482C01092D1021092FB
:101D9000D2021092D3021092D40279C0C357DF4FFF
:101DA000688179818A819B81CD58D0400E94AE1490
:101DB00020E030E84BEB55E40E947E1620E030E056
:101DC00048EB51E40E941F156B017C01CB56DF4F9D
:101DD000688179818A819B81C559D0400E94C9154B
:101DE0002AE037ED43E25CE30E947E164B015C0182
:101DF000A70196010E941F1520E030E040E951E460
:101E00000E947E16A30192010E94AE142B013C0198
:101E1000A5019401C701B6010E94AE149B01AC015B
:101E2000C701B6010E941F159B01AC01C301B2019D
:101E30000E947E1660930201709303018093040157
:101E400090930501C5CCC757DF4F188219821A82BB
:101E50001B82C958D0403ACDC501B401905820E04A
:101E600030E04FEA53E46FCD1092D5021092D602C3
:101E70001092D7021092D802F4CE2DEC3CEC4CEC30
:101E80005DEBC501B4010E94791687FF7ECF20E08B
:101E900030E048EC52E460910201709103018091BE
:101EA0000401909105010E94791618160CF088C063
:101EB00080E091E00E94DA0380E090E0A8ECB2E4D8
:101EC0008093020190930301A0930401B093050154
:101ED000C0900201D0900301E0900401F090050150
:101EE00020E030E040EC52E4C701B6010E947916D0
:101EF000181624F488E090E00E94DA0320E030E035
:101F000044E352E4C701B6010E941A1587FF09C0D5
:101F10008091C2029091C302877F9093C302809305
:101F2000C202C090D502D090D602E090D702F090C5
:101F3000D80220E030E040EA52E4C701B6010E9436
:101F4000791687FD04C080E890E00E94DA031091C2
:101F5000DA0211110EC020E030E040E450E4C70185
:101F6000B6010E94791687FD04C080E890E00E94C7
:101F7000DA03612F88E00E94B0028091B002909154
:101F8000B10201968A3091052CF59093B1028093AD
:101F9000B0020E943403809100019091010197FDED
:101FA00000CBE091AC02F091AD028BE892E0099594
:101FB000CC24CA94DC2CD0920101C0920001F1CA59
:101FC0008091C2029091C3029E7F9093C30280933E
:101FD000C2027ECF1092B1021092B0028CED92E05C
:101FE0000E94AF0118161906BCF58E0107581F4F45
:101FF00078012FE0E20EF11C68018CED92E00E9466
:102000008D011816190644F4E016F10629F0F801BE
:1020100081938F011082F1CFB601CE018B599F4F72
:102020000E9420058091C4028823B1F0B601CE0140
:1020300001960E94FC1661E371E0CE0101960E94B8
:10204000F116BE016B597F4FCE0101960E94F11629
:10205000CE0101960E9468048091AE029091AF0279
:1020600001968A3091052CF49093AF028093AE02D2
:1020700090CF1092AF021092AE02F090C40227E20D
:10208000C22E22E0D22EFF2049F084E58093270261
:102090003092280239E2C32E32E0D32E6091BE0284
:1020A0007091BF028091C0029091C1020E94C71539
:1020B0002AE037ED43E25CE30E947E16860122E0CF
:1020C00049E00E94FB04F60101900020E9F73197F6
:1020D0002082DF011196FF2029F084E48183DF0153
:1020E000139632828091DA02882309F43FC181E39A
:1020F0008C9311962C9211976D01F2E0CF0ED11CAA
:10210000FF2051F08CE412968C9312976D0104E03D
:10211000C00ED11C13963C926091CD027091CE02FC
:102120008091CF029091D002860121E047E00E9489
:10213000FB04F60101900020E9F731972082DF01CE
:102140001196FF2029F088E48183DF011396328203
:102150008091D902882309F40BC181E38C931196F5
:102160002C9211976D0112E0C10ED11CFF2051F08D
:1021700083E412968C9312976D0124E0C20ED11C59
:1021800013963C92609102017091030180910401C9
:1021900090910501860121E047E00E94FB04F601D1
:1021A00001900020E9F731972082DF011196FF208E
:1021B00029F089E48183DF01139632828091CC0279
:1021C000882309F4D7C081E38C9311962C92119740
:1021D000FD01F110D1C032968091CB02882309F421
:1021E000D3C081E3808321826F0132E0C30ED11C12
:1021F000FF2039F041E442836F0154E0C50ED11C49
:1022000033826091D5027091D6028091D70290916D
:10221000D802860121E047E00E94FB04F60101900C
:102220000020E9F7319720826F018FEFC81AD80A92
:10223000FF2039F097E791836F0103E0C00ED11CB6
:1022400032826091BA027091BB028091BC0290917F
:10225000BD02860121E047E00E94FB04F6010190E7
:102260000020E9F7319720826F011FEFC11AD10AD0
:10227000FF2039F02FE621836F0133E0C30ED11C1C
:1022800032826091C7027091C8028091C902909118
:10229000CA02860123E049E00E94FB04F601019096
:1022A0000020E9F7319720826F014FEFC41AD40A5A
:1022B000FF2039F052E751836F0183E0C80ED11C33
:1022C00032826091D1027091D2028091D3029091BA
:1022D000D4020E949115CB014AE0B6010E9402127D
:1022E000F60101900020E9F7319720825F019FEF0E
:1022F000A91AB90AFF2041F09BE6C92EC1825F01ED
:1023000003E0A00EB11C32826091B6027091B70258
:102310008091B8029091B902850122E047E00E94C5
:10232000FB04F50101900020E9F731978F010F5F61
:102330001F4F20824AE0B801FF2069F065E371E099
:10234000C8010E94FC16F80101900020E9F7BF01C6
:102350006150710940E18091C2029091C3020E94D4
:10236000021287E292E00E94680413CE80E3C0CE9E
:1023700080E3F4CE80E328CF349680E512968C93E8
:10238000129713963C9228CF80E32CCFEF920F93B5
:102390001F93CF93DF93E80134E047FD34E1042E2F
:1023A000000C550B57FF03C0519541955109E32E81
:1023B000022F242FAE010E942F12CE01DF91CF9168
:1023C0001F910F91EF900895FC0188279927E894B9
:1023D00021912032E9F3293010F02E30C8F32B324E
:1023E00041F02D3239F4689404C00E940D12820F1E
:1023F000911D219120532A30C0F31EF490958195B0
:102400009F4F0895BB274A3031F4992322F4BDE24F
:10241000909581959F4F0C9416127AE0979F902D7E
:10242000879F802D910D11240895BB27FB0155270F
:10243000AA27880F991FAA1FA41710F0A41B839521
:102440005051B9F7A05DAA3308F0A95DA193009798
:1024500079F7B111B1931192CB010C946614A9E0F4
:10246000B0E0E5E3F2E10C947C146A01F22EB02EA8
:10247000102FFBE3AF2EA01608F41BE31F5F012F04
:1024800027E0AE014F5F5F4F0E948E13BC01898130
:10249000982F9970913009F43FC09BE2E1FC04C091
:1024A0009E2D9170E0FC3AC05E2D5071E82FE870CF
:1024B00083FF46C084E0911101C083E0EF2DE81B4B
:1024C0008F1508F0E0E0D6018E2F20E2552351F160
:1024D000992329F0D6019C93C60101966C019601BF
:1024E0002D5F3F4FE2FE24C08EE4D6018C9391E431
:1024F00011969C93119712968C93D9018E2F90E28E
:1025000081111BC0E20FF32FF11D10828EEF9FEFA0
:102510002996ECE00C9498149DE2C6CF90E2C4CFCB
:102520002D9381508111FCCFCE0ED11CE0E0D0CF95
:102530008EE6D6018C9391E6DBCF9D938150E0CF60
:10254000482F447082FF3DC084E0911101C083E0B8
:102550008F1510F4EF2DE81BD6018E2F20E25523A6
:1025600009F1992329F0D6019C93C60101966C01CB
:1025700096012D5F3F4FE2FE1BC089E4D6018C938C
:102580008EE411968C93119786E412968C93D90160
:102590008E2F90E2882309F4B5CF9D938150FACF16
:1025A0002D9381508111FCCFCE0ED11CE0E0D9CF0C
:1025B00089E6D6018C938EE611968C93119786E668
:1025C000E4CF9B0177FF02C030E020E0A1E0B0E063
:1025D000911102C0B0E0A0E0F9013196AE0FBF1F2B
:1025E0008B2C912CBB2009F461C05401EFEFAE1A83
:1025F000BE0AAA0DBB1DFA161B0619F014F04F2DCA
:102600004A1B511188C0E3FC59C07601A42FB0E2E7
:10261000A1114FC0C40ED11C992309F45BC040E046
:10262000D6011196F60190836D01552309F448C037
:10263000012F060F9A81582F507184FF03C09133E8
:1026400009F4015010160CF047C0093008F008E0FA
:10265000EEE2FE2E5B01A01AB108850191948194EF
:1026600091082F3F320729F4D601FC92F6013196EA
:102670006F016217730794F1021713077CF5DB01F2
:10268000A21BB30BAA24A394B12CAC0EBD1EAA0DA1
:10269000BB1D11968C9121503109D6011196281538
:1026A0003905F4F0F60180836D01DBCFB12CA12C4C
:1026B000A0CFF701B1937F01A150AACF9111B0CF64
:1026C000D601942F50E302C05D9391509111FCCF3D
:1026D000C40ED11C40E0ACCF01E0BACF80E3DBCF29
:1026E0006217730731F4963388F4953311F4552348
:1026F00069F0F6018083FD01842F90E2811108C00A
:10270000A40FB11D1C9290E080E002CF81E3F1CFD5
:1027100091938150F3CF911183CF8ACF283008F065
:1027200027E03327DA01990F311D87FD916000966C
:102730006105710539F432602E5F3D9330E32A95CF
:10274000E1F708959F3F30F080387105610509F089
:102750003C5F3C5F3D93913008F08068911DDF93B2
:10276000CF931F930F93FF92EF92192F987F969517
:10277000E92F96959695E90FFF27EE53FF4F99277E
:102780003327EE24FF24A701E7010590089407945E
:1027900028F4360FE71EF81E491F511D660F771FDC
:1027A000881F991F0694A1F70590079428F4E70E57
:1027B000F81E491F561FC11D770F881F991F661FDE
:1027C0000694A1F70590079428F4F80E491F561FA8
:1027D000C71FD11D880F991F661F771F0694A1F789
:1027E0000590079420F4490F561FC71FD81F990F53
:1027F000661F771F881F0694A9F78491109517709C
:1028000041F0D695C79557954795F794E7941A9553
:10281000C1F7E8E6F0E0689415901591359165915F
:10282000959105907FE27395E118F10A430B560BE1
:10283000C90BD009C0F7E10CF11E431F561FC91F79
:10284000D01D7EF4703311F48A95E6CFE8940150E0
:1028500030F0080F0AF40027021708F4202F239500
:10286000022F7A3328F079E37D932A95E9F710C097
:102870007D932A9589F606949795679537951795D0
:102880001794E118F10A430B560BC90BD00998F0C5
:1028900023957E9173957A3308F070E37C9320132F
:1028A000B8F77E9170617D9330F0839571E37D93ED
:1028B00070E32A95E1F71124EF90FF900F911F919B
:1028C000CF91DF91992787FD90950895DC01FC0158
:1028D000672F71917723E1F7329704C07C916D9354
:1028E00070836291AE17BF07C8F308952F923F928D
:1028F0004F925F926F927F928F929F92AF92BF9210
:10290000CF92DF92EF92FF920F931F93CF93DF93BB
:10291000CDB7DEB7CA1BDB0B0FB6F894DEBF0FBE18
:10292000CDBF09942A88398848885F846E847D8465
:102930008C849B84AA84B984C884DF80EE80FD8067
:102940000C811B81AA81B981CE0FD11D0FB6F894DD
:10295000DEBF0FBECDBFED0108955058BB27AA279B
:102960000E94C5140C943F160E94311638F00E9444
:10297000381620F039F49F3F19F426F40C942E16E3
:102980000EF4E095E7FB0C942816E92F0E945016F0
:1029900058F3BA17620773078407950720F079F494
:1029A000A6F50C9472160EF4E0950B2EBA2FA02DFE
:1029B0000B01B90190010C01CA01A0011124FF27EC
:1029C000591B99F0593F50F4503E68F11A16F040E7
:1029D000A22F232F342F4427585FF3CF46953795E6
:1029E0002795A795F0405395C9F77EF41F16BA0BAB
:1029F000620B730B840BBAF09150A1F0FF0FBB1F59
:102A0000661F771F881FC2F70EC0BA0F621F731FA1
:102A1000841F48F4879577956795B795F7959E3FFE
:102A200008F0B0CF9395880F08F09927EE0F97958F
:102A3000879508950E94041608F481E008950E9485
:102A400033150C943F160E94381658F00E94311628
:102A500040F029F45F3F29F00C94281651110C9492
:102A600073160C942E160E94501668F39923B1F336
:102A7000552391F3951B550BBB27AA2762177307A4
:102A8000840738F09F5F5F4F220F331F441FAA1F38
:102A9000A9F335D00E2E3AF0E0E832D091505040F4
:102AA000E695001CCAF72BD0FE2F29D0660F771FA2
:102AB000881FBB1F261737074807AB07B0E809F088
:102AC000BB0B802DBF01FF2793585F4F3AF09E3F0D
:102AD000510578F00C9428160C9473165F3FE4F3BC
:102AE000983ED4F3869577956795B795F7959F5F50
:102AF000C9F7880F911D9695879597F90895E1E09C
:102B0000660F771F881FBB1F621773078407BA07FA
:102B100020F0621B730B840BBA0BEE1F88F7E09555
:102B200008950E9498156894B1110C947316089535
:102B30000E94581688F09F5798F0B92F9927B751DF
:102B4000B0F0E1F0660F771F881F991F1AF0BA9551
:102B5000C9F714C0B13091F00E947216B1E0089527
:102B60000C947216672F782F8827B85F39F0B93F19
:102B7000CCF3869577956795B395D9F73EF4909504
:102B80008095709561957F4F8F4F9F4F0895E89482
:102B900009C097FB3EF490958095709561957F4FA5
:102BA0008F4F9F4F9923A9F0F92F96E9BB27939553
:102BB000F695879577956795B795F111F8CFFAF463
:102BC000BB0F11F460FF1BC06F5F7F4F8F4F9F4F94
:102BD00016C0882311F096E911C0772321F09EE8F2
:102BE000872F762F05C0662371F096E8862F70E058
:102BF00060E02AF09A95660F771F881FDAF7880F32
:102C00009695879597F90895990F0008550FAA0B87
:102C1000E0E8FEEF16161706E807F907C0F01216EF
:102C20001306E407F50798F0621B730B840B950BF2
:102C300039F40A2661F0232B242B252B21F4089547
:102C40000A2609F4A140A6958FEF811D811D0895E4
:102C500097F99F6780E870E060E008959FEF80EC4F
:102C6000089500240A9416161706180609060895F2
:102C700000240A9412161306140605060895092E58
:102C80000394000C11F4882352F0BB0F40F4BF2BC7
:102C900011F460FF04C06F5F7F4F8F4F9F4F089507
:102CA00057FD9058440F551F59F05F3F71F04795FD
:102CB000880F97FB991F61F09F3F79F087950895E2
:102CC000121613061406551FF2CF4695F1DF08C001
:102CD000161617061806991FF1CF8695710561051E
:102CE00008940895E894BB2766277727CB0197F9C6
:102CF00008950E94041608F48FEF08950E9491161B
:102D00000C943F160E94311638F00E94381620F0BD
:102D1000952311F00C9428160C942E1611240C9463
:102D200073160E94501670F3959FC1F3950F50E0F3
:102D3000551F629FF001729FBB27F00DB11D639F6D
:102D4000AA27F00DB11DAA1F649F6627B00DA11D13
:102D5000661F829F2227B00DA11D621F739FB00DB9
:102D6000A11D621F839FA00D611D221F749F332729
:102D7000A00D611D231F849F600D211D822F762FC2
:102D80006A2F11249F5750409AF0F1F088234AF09F
:102D9000EE0FFF1FBB1F661F771F881F915050400B
:102DA000A9F79E3F510580F00C9428160C947316D9
:102DB0005F3FE4F3983ED4F3869577956795B79592
:102DC000F795E7959F5FC1F7FE2B880F911D9695AC
:102DD000879597F90895EE0FFF1F0590F491E02D68
:102DE0000994FB01DC010D900020E9F71197019097
:102DF0000D920020E1F70895FB01DC0101900D9296
:0A2E00000020E1F70895F894FFCFD9
:102E0A00FFFF000090410100000000000000F101F6
:102E1A0051017E013E02AF018D01A10100000000B7
:102E2A00C603BB03D7039103B403A10392030D0A9C
:0A2E3A0000203E2000573D307800D4
:00000001FF
